:020000040000fa
:080000000001040000000000f3
:020000040000fa
:100008009a0100009a0100009a0100009a0100007c
:100018009a0100009a0100009a0100009a0100006c
:100028009a0100009a0100009a0100009a0100005c
:100038009a0100009a0100009a0100009a0100004c
:100048009a0100009a0100009a0100009a0100003c
:100058009a0100009a0100009a0100009a0100002c
:100068009a0100009a0100009a0100009a0100001c
:100078009a0100009a0100009a0100009a0100000c
:100088009a0100009a0100009a0100009a010000fc
:100098009a0100009a0100009a0100009a010000ec
:1000a8009a0100009a0100009a0100009a010000dc
:1000b8009a0100009a0100009a0100009a010000cc
:1000c8009a0100009a0100009a0100009a010000bc
:1000d8009a0100009a0100009a0100009a010000ac
:1000e8009a0100009a0100009a0100009a0100009c
:0800f8009a0100009a010000ca
:020000040000fa
:100108009a0100009a0100009a0100009a0100007b
:100118009a0100009a0100009a0100009a0100006b
:100128009a0100009a0100009a0100009a0100005b
:100138009a0100009a0100009a0100009a0100004b
:100148009a0100009a0100009a0100009a0100003b
:100158009a0100009a0100009a0100009a0100002b
:100168009a0100009a0100009a0100009a0100001b
:100178009a0100009a0100009a0100009a0100000b
:100188009a0100009a0100009a0100009a010000fb
:100198009a0100009a0100009a0100009a010000eb
:1001a8009a0100009a0100009a0100009a010000db
:1001b8009a0100009a0100009a0100009a010000cb
:1001c8009a0100009a0100009a0100009a010000bb
:1001d8009a0100009a0100009a0100009a010000ab
:1001e8009a0100009a0100009a0100009a0100009b
:0801f8009a0100009a010000c9
:020000040000fa
:100200000f8020000e7f22000e01880000000000f9
:10021000000020000000e000020032000001200089
:10022000200288000c000700602720000100200049
:1002300011000700000020000000e0000200320072
:1002400000000200000000009e010200000000000b
:100250000040da000000fe004440a9000000200039
:100260000000e0000300320000002000a001880030
:100270004440a8000000060091018800800078003a
:100280000000eb0015003700e280400032a0b4000f
:100290009101ba00e280400032a0b4009102ba009d
:1002a000e280400032a0b4000002eb00472bde00e9
:1002b000f507b200602ce10004003a000059eb00a1
:1002c0008301e900fdff3e00040037006128e100e2
:1002d000010032000082eb00040007001101ba00a7
:1002e0000200e000e8ff3a00000006003159ba00c1
:1002f0008301e9000c0032002159ba008301e900b2
:10030000080032000400e00003003a00e2804000f0
:1003100032a0b400f5ff370011d9ba008301e9001b
:10032000faff3a008100e800e180400032a0b4000a
:0c033000000006000040da000000fe00a3
:020000040000fa
:10033c000600fa00043e290045002000048fbe0090
:10034c0004ff2f0094168800f41f20003416880038
:10035c0004f02f00441588000002eb0004158800ff
:10036c000002eb00141588005400200024158800ae
:10037c00a1e2a8000000eb003900070000027800a1
:10038c00240798002e029000cfa2de00860c2000dd
:10039c0006abb900060378006020b9008003780032
:1003ac000703430084027800840c2000042ab80060
:1003bc000503430086027800069f240027002000d6
:1003cc00061f420007974a0084002000b4168800dc
:1003dc001e02be000400be003300070044002000d3
:1003ec00b41688001e02be000400be002e000700da
:1003fc0024002000b41688001e02be000400be00bb
:10040c002900070014002000b41688001e02be004c
:10041c000400be00240007000002eb00140c88004e
:10042c002e029000040c8800240c80000400a00014
:10043c000410a1000420a000240c8800540c80009f
:10044c000400a0000410a1000420a000540c88009b
:10045c00044020006408880011e1a800c5ff3700a3
:10046c000200fa00000f78001e0278003415880094
:10047c00a022a800e0012000010020000a000700d3
:10048c00a022a90000000000041580006102620097
:10049c00e00f5200fcff32000414800004007800ce
:0804ac000080fa0000000600c8
:020000040000fa
:1004b400f03fb1000180b10006003500ee030900f1
:1004c40000000000403fb1000180b100fbff3d008f
:1004d4001000b000203fb000020035000080090089
:0804e40000000000000006000a
:020000040000fa
:0404ec00000000000c
:020000040000fa
:0200000401f009
:04000000f0bd00004f
:020000040000fa
:0200000401f009
:04000400ff7f00007a
:020000040000fa
:0200000401f009
:04000800ff7f000076
:020000040000fa
:0200000401f009
:04001400ffff0000ea
:020000040000fa
:0200000401f009
:04001800ffff0000e6
:00000001FF
