:020000040000fa
:08000000620104000000000091
:020000040000fa
:100008005e0100005e0100005e0100005e0100006c
:100018005e0100005e0100005e0100005e0100005c
:100028005e0100005e0100005e0100005e0100004c
:100038005e0100005e0100005e0100005e0100003c
:100048005e0100005e0100005e0100005e0100002c
:100058005e0100005e0100005e0100005e0100001c
:100068005e0100005e0100005e0100005e0100000c
:100078005e0100005e0100005e0100005e010000fc
:100088005e0100005e0100005e0100005e010000ec
:100098005e0100005e0100005e0100005e010000dc
:1000a8005e0100005e0100005e0100005e010000cc
:1000b8005e0100005e0100005e0100005e010000bc
:1000c8005e0100005e0100005e0100005e010000ac
:1000d8005e0100005e0100005e0100005e0100009c
:1000e8005e0100005e0100005e0100005e0100008c
:0800f8005e0100005e01000042
:020000040000fa
:100108005e0100005e0100005e0100005e0100006b
:100118005e0100005e0100005e0100005e0100005b
:100128005e0100005e0100005e0100005e0100004b
:100138005e0100005e0100005e0100005e0100003b
:100148005e0100005e0100005e0100005e0100002b
:100158005e0100005e0100005e0100005e0100001b
:100168005e0100005e0100005e0100005e0100000b
:100178005e0100005e0100005e0100005e010000fb
:100188005e0100005e0100005e0100005e010000eb
:100198005e0100005e0100005e0100005e010000db
:1001a8005e0100005e0100005e0100005e010000cb
:1001b8005e0100005e0100005e0100005e010000bb
:1001c8005e0100005e0100005e0100005e010000ab
:1001d8005e0100005e0100005e0100005e0100009b
:1001e8005e0100005e0100005e0100005e0100008b
:0801f8005e0100005e01000041
:020000040000fa
:1002000091018800800078000000eb0015003700a5
:10021000e280400032a0b4009101ba00e2804000c8
:1002200032a0b4009102ba00e280400032a0b400d3
:100230000002eb00472bde00f507b200602ce10066
:1002400004003a000059eb008301e900fdff3e0085
:10025000040037006128e100010032000082eb0059
:10026000040007001101ba000200e000e8ff3a00b4
:10027000000006003159ba008301e9000c00320089
:100280002159ba008301e900080032000400e000af
:1002900003003a00e280400032a0b400f5ff3700ce
:1002a00011d9ba008301e900faff3a008100e800a1
:1002b000e180400032a0b400000006000040da00f7
:0402c0000000fe003c
:020000040000fa
:1002c4000400210010002000210020000e0008007e
:1002d40003000000010a78000482e8003100b00045
:0402e4000000e8002e
:020000040000fa
:0402e8000000000012
:00000001FF
